{
  "_format": "hh-sol-artifact-1",
  "contractName": "FT",
  "sourceName": "contracts/erc20.sol",
  "abi": [
    {
      "inputs": [
        {
          "internalType": "address",
          "name": "initialOwner",
          "type": "address"
        }
      ],
      "stateMutability": "nonpayable",
      "type": "constructor"
    },
    {
      "inputs": [],
      "name": "ECDSAInvalidSignature",
      "type": "error"
    },
    {
      "inputs": [
        {
          "internalType": "uint256",
          "name": "length",
          "type": "uint256"
        }
      ],
      "name": "ECDSAInvalidSignatureLength",
      "type": "error"
    },
    {
      "inputs": [
        {
          "internalType": "bytes32",
          "name": "s",
          "type": "bytes32"
        }
      ],
      "name": "ECDSAInvalidSignatureS",
      "type": "error"
    },
    {
      "inputs": [
        {
          "internalType": "address",
          "name": "spender",
          "type": "address"
        },
        {
          "internalType": "uint256",
          "name": "allowance",
          "type": "uint256"
        },
        {
          "internalType": "uint256",
          "name": "needed",
          "type": "uint256"
        }
      ],
      "name": "ERC20InsufficientAllowance",
      "type": "error"
    },
    {
      "inputs": [
        {
          "internalType": "address",
          "name": "sender",
          "type": "address"
        },
        {
          "internalType": "uint256",
          "name": "balance",
          "type": "uint256"
        },
        {
          "internalType": "uint256",
          "name": "needed",
          "type": "uint256"
        }
      ],
      "name": "ERC20InsufficientBalance",
      "type": "error"
    },
    {
      "inputs": [
        {
          "internalType": "address",
          "name": "approver",
          "type": "address"
        }
      ],
      "name": "ERC20InvalidApprover",
      "type": "error"
    },
    {
      "inputs": [
        {
          "internalType": "address",
          "name": "receiver",
          "type": "address"
        }
      ],
      "name": "ERC20InvalidReceiver",
      "type": "error"
    },
    {
      "inputs": [
        {
          "internalType": "address",
          "name": "sender",
          "type": "address"
        }
      ],
      "name": "ERC20InvalidSender",
      "type": "error"
    },
    {
      "inputs": [
        {
          "internalType": "address",
          "name": "spender",
          "type": "address"
        }
      ],
      "name": "ERC20InvalidSpender",
      "type": "error"
    },
    {
      "inputs": [
        {
          "internalType": "uint256",
          "name": "deadline",
          "type": "uint256"
        }
      ],
      "name": "ERC2612ExpiredSignature",
      "type": "error"
    },
    {
      "inputs": [
        {
          "internalType": "address",
          "name": "signer",
          "type": "address"
        },
        {
          "internalType": "address",
          "name": "owner",
          "type": "address"
        }
      ],
      "name": "ERC2612InvalidSigner",
      "type": "error"
    },
    {
      "inputs": [
        {
          "internalType": "address",
          "name": "account",
          "type": "address"
        },
        {
          "internalType": "uint256",
          "name": "currentNonce",
          "type": "uint256"
        }
      ],
      "name": "InvalidAccountNonce",
      "type": "error"
    },
    {
      "inputs": [],
      "name": "InvalidShortString",
      "type": "error"
    },
    {
      "inputs": [
        {
          "internalType": "address",
          "name": "owner",
          "type": "address"
        }
      ],
      "name": "OwnableInvalidOwner",
      "type": "error"
    },
    {
      "inputs": [
        {
          "internalType": "address",
          "name": "account",
          "type": "address"
        }
      ],
      "name": "OwnableUnauthorizedAccount",
      "type": "error"
    },
    {
      "inputs": [
        {
          "internalType": "string",
          "name": "str",
          "type": "string"
        }
      ],
      "name": "StringTooLong",
      "type": "error"
    },
    {
      "anonymous": false,
      "inputs": [
        {
          "indexed": true,
          "internalType": "address",
          "name": "owner",
          "type": "address"
        },
        {
          "indexed": true,
          "internalType": "address",
          "name": "spender",
          "type": "address"
        },
        {
          "indexed": false,
          "internalType": "uint256",
          "name": "value",
          "type": "uint256"
        }
      ],
      "name": "Approval",
      "type": "event"
    },
    {
      "anonymous": false,
      "inputs": [],
      "name": "EIP712DomainChanged",
      "type": "event"
    },
    {
      "anonymous": false,
      "inputs": [
        {
          "indexed": true,
          "internalType": "address",
          "name": "previousOwner",
          "type": "address"
        },
        {
          "indexed": true,
          "internalType": "address",
          "name": "newOwner",
          "type": "address"
        }
      ],
      "name": "OwnershipTransferred",
      "type": "event"
    },
    {
      "anonymous": false,
      "inputs": [
        {
          "indexed": true,
          "internalType": "address",
          "name": "from",
          "type": "address"
        },
        {
          "indexed": true,
          "internalType": "address",
          "name": "to",
          "type": "address"
        },
        {
          "indexed": false,
          "internalType": "uint256",
          "name": "value",
          "type": "uint256"
        }
      ],
      "name": "Transfer",
      "type": "event"
    },
    {
      "inputs": [],
      "name": "DOMAIN_SEPARATOR",
      "outputs": [
        {
          "internalType": "bytes32",
          "name": "",
          "type": "bytes32"
        }
      ],
      "stateMutability": "view",
      "type": "function"
    },
    {
      "inputs": [
        {
          "internalType": "address",
          "name": "owner",
          "type": "address"
        },
        {
          "internalType": "address",
          "name": "spender",
          "type": "address"
        }
      ],
      "name": "allowance",
      "outputs": [
        {
          "internalType": "uint256",
          "name": "",
          "type": "uint256"
        }
      ],
      "stateMutability": "view",
      "type": "function"
    },
    {
      "inputs": [
        {
          "internalType": "address",
          "name": "spender",
          "type": "address"
        },
        {
          "internalType": "uint256",
          "name": "value",
          "type": "uint256"
        }
      ],
      "name": "approve",
      "outputs": [
        {
          "internalType": "bool",
          "name": "",
          "type": "bool"
        }
      ],
      "stateMutability": "nonpayable",
      "type": "function"
    },
    {
      "inputs": [
        {
          "internalType": "address",
          "name": "account",
          "type": "address"
        }
      ],
      "name": "balanceOf",
      "outputs": [
        {
          "internalType": "uint256",
          "name": "",
          "type": "uint256"
        }
      ],
      "stateMutability": "view",
      "type": "function"
    },
    {
      "inputs": [
        {
          "internalType": "uint256",
          "name": "value",
          "type": "uint256"
        }
      ],
      "name": "burn",
      "outputs": [],
      "stateMutability": "nonpayable",
      "type": "function"
    },
    {
      "inputs": [
        {
          "internalType": "address",
          "name": "account",
          "type": "address"
        },
        {
          "internalType": "uint256",
          "name": "value",
          "type": "uint256"
        }
      ],
      "name": "burnFrom",
      "outputs": [],
      "stateMutability": "nonpayable",
      "type": "function"
    },
    {
      "inputs": [],
      "name": "decimals",
      "outputs": [
        {
          "internalType": "uint8",
          "name": "",
          "type": "uint8"
        }
      ],
      "stateMutability": "view",
      "type": "function"
    },
    {
      "inputs": [],
      "name": "eip712Domain",
      "outputs": [
        {
          "internalType": "bytes1",
          "name": "fields",
          "type": "bytes1"
        },
        {
          "internalType": "string",
          "name": "name",
          "type": "string"
        },
        {
          "internalType": "string",
          "name": "version",
          "type": "string"
        },
        {
          "internalType": "uint256",
          "name": "chainId",
          "type": "uint256"
        },
        {
          "internalType": "address",
          "name": "verifyingContract",
          "type": "address"
        },
        {
          "internalType": "bytes32",
          "name": "salt",
          "type": "bytes32"
        },
        {
          "internalType": "uint256[]",
          "name": "extensions",
          "type": "uint256[]"
        }
      ],
      "stateMutability": "view",
      "type": "function"
    },
    {
      "inputs": [
        {
          "internalType": "address",
          "name": "to",
          "type": "address"
        },
        {
          "internalType": "uint256",
          "name": "amount",
          "type": "uint256"
        }
      ],
      "name": "mint",
      "outputs": [],
      "stateMutability": "nonpayable",
      "type": "function"
    },
    {
      "inputs": [],
      "name": "name",
      "outputs": [
        {
          "internalType": "string",
          "name": "",
          "type": "string"
        }
      ],
      "stateMutability": "view",
      "type": "function"
    },
    {
      "inputs": [
        {
          "internalType": "address",
          "name": "owner",
          "type": "address"
        }
      ],
      "name": "nonces",
      "outputs": [
        {
          "internalType": "uint256",
          "name": "",
          "type": "uint256"
        }
      ],
      "stateMutability": "view",
      "type": "function"
    },
    {
      "inputs": [],
      "name": "owner",
      "outputs": [
        {
          "internalType": "address",
          "name": "",
          "type": "address"
        }
      ],
      "stateMutability": "view",
      "type": "function"
    },
    {
      "inputs": [
        {
          "internalType": "address",
          "name": "owner",
          "type": "address"
        },
        {
          "internalType": "address",
          "name": "spender",
          "type": "address"
        },
        {
          "internalType": "uint256",
          "name": "value",
          "type": "uint256"
        },
        {
          "internalType": "uint256",
          "name": "deadline",
          "type": "uint256"
        },
        {
          "internalType": "uint8",
          "name": "v",
          "type": "uint8"
        },
        {
          "internalType": "bytes32",
          "name": "r",
          "type": "bytes32"
        },
        {
          "internalType": "bytes32",
          "name": "s",
          "type": "bytes32"
        }
      ],
      "name": "permit",
      "outputs": [],
      "stateMutability": "nonpayable",
      "type": "function"
    },
    {
      "inputs": [],
      "name": "renounceOwnership",
      "outputs": [],
      "stateMutability": "nonpayable",
      "type": "function"
    },
    {
      "inputs": [],
      "name": "symbol",
      "outputs": [
        {
          "internalType": "string",
          "name": "",
          "type": "string"
        }
      ],
      "stateMutability": "view",
      "type": "function"
    },
    {
      "inputs": [],
      "name": "totalSupply",
      "outputs": [
        {
          "internalType": "uint256",
          "name": "",
          "type": "uint256"
        }
      ],
      "stateMutability": "view",
      "type": "function"
    },
    {
      "inputs": [
        {
          "internalType": "address",
          "name": "to",
          "type": "address"
        },
        {
          "internalType": "uint256",
          "name": "value",
          "type": "uint256"
        }
      ],
      "name": "transfer",
      "outputs": [
        {
          "internalType": "bool",
          "name": "",
          "type": "bool"
        }
      ],
      "stateMutability": "nonpayable",
      "type": "function"
    },
    {
      "inputs": [
        {
          "internalType": "address",
          "name": "from",
          "type": "address"
        },
        {
          "internalType": "address",
          "name": "to",
          "type": "address"
        },
        {
          "internalType": "uint256",
          "name": "value",
          "type": "uint256"
        }
      ],
      "name": "transferFrom",
      "outputs": [
        {
          "internalType": "bool",
          "name": "",
          "type": "bool"
        }
      ],
      "stateMutability": "nonpayable",
      "type": "function"
    },
    {
      "inputs": [
        {
          "internalType": "address",
          "name": "newOwner",
          "type": "address"
        }
      ],
      "name": "transferOwnership",
      "outputs": [],
      "stateMutability": "nonpayable",
      "type": "function"
    }
  ],
  "bytecode": "0x61016060405234801561001157600080fd5b5060405161161538038061161583398101604081905261003091610274565b60405180604001604052806002815260200161119560f21b81525080604051806040016040528060018152602001603160f81b8152508360405180604001604052806002815260200161119560f21b81525060405180604001604052806006815260200165151154d5119560d21b81525081600390816100b09190610343565b5060046100bd8282610343565b5050506001600160a01b0381166100ef57604051631e4fbdf760e01b8152600060048201526024015b60405180910390fd5b6100f8816101b1565b50610104826006610203565b61012052610113816007610203565b61014052815160208084019190912060e052815190820120610100524660a0526101a060e05161010051604080517f8b73c3c69bb8fe3d512ecc4cf759cc79239f7b179b0ffacaa9a75d522b39400f60208201529081019290925260608201524660808201523060a082015260009060c00160405160208183030381529060405280519060200120905090565b60805250503060c052506104739050565b600580546001600160a01b038381166001600160a01b0319831681179093556040519116919082907f8be0079c531659141344cd1fd0a4f28419497f9722a3daafe3b4186f6b6457e090600090a35050565b600060208351101561021f5761021883610236565b9050610230565b8161022a8482610343565b5060ff90505b92915050565b600080829050601f81511115610261578260405163305a27a960e01b81526004016100e69190610401565b805161026c8261044f565b179392505050565b60006020828403121561028657600080fd5b81516001600160a01b038116811461029d57600080fd5b9392505050565b634e487b7160e01b600052604160045260246000fd5b600181811c908216806102ce57607f821691505b6020821081036102ee57634e487b7160e01b600052602260045260246000fd5b50919050565b601f82111561033e57806000526020600020601f840160051c8101602085101561031b5750805b601f840160051c820191505b8181101561033b5760008155600101610327565b50505b505050565b81516001600160401b0381111561035c5761035c6102a4565b6103708161036a84546102ba565b846102f4565b6020601f8211600181146103a4576000831561038c5750848201515b600019600385901b1c1916600184901b17845561033b565b600084815260208120601f198516915b828110156103d457878501518255602094850194600190920191016103b4565b50848210156103f25786840151600019600387901b60f8161c191681555b50505050600190811b01905550565b602081526000825180602084015260005b8181101561042f5760208186018101516040868401015201610412565b506000604082850101526040601f19601f83011684010191505092915050565b805160208083015191908110156102ee5760001960209190910360031b1b16919050565b60805160a05160c05160e0516101005161012051610140516111486104cd600039600061093201526000610905015260006107c20152600061079a015260006106f50152600061071f0152600061074901526111486000f3fe608060405234801561001057600080fd5b50600436106101215760003560e01c8063715018a6116100ad57806395d89b411161007157806395d89b4114610258578063a9059cbb14610260578063d505accf14610273578063dd62ed3e14610286578063f2fde38b146102bf57600080fd5b8063715018a6146101f457806379cc6790146101fc5780637ecebe001461020f57806384b0196e146102225780638da5cb5b1461023d57600080fd5b8063313ce567116100f4578063313ce5671461018c5780633644e5151461019b57806340c10f19146101a357806342966c68146101b857806370a08231146101cb57600080fd5b806306fdde0314610126578063095ea7b31461014457806318160ddd1461016757806323b872dd14610179575b600080fd5b61012e6102d2565b60405161013b9190610e92565b60405180910390f35b610157610152366004610ec8565b610364565b604051901515815260200161013b565b6002545b60405190815260200161013b565b610157610187366004610ef2565b61037e565b6040516012815260200161013b565b61016b6103a2565b6101b66101b1366004610ec8565b6103b1565b005b6101b66101c6366004610f2f565b6103c7565b61016b6101d9366004610f48565b6001600160a01b031660009081526020819052604090205490565b6101b66103d4565b6101b661020a366004610ec8565b6103e8565b61016b61021d366004610f48565b6103fd565b61022a61041b565b60405161013b9796959493929190610f63565b6005546040516001600160a01b03909116815260200161013b565b61012e610461565b61015761026e366004610ec8565b610470565b6101b6610281366004610ffb565b61047e565b61016b61029436600461106e565b6001600160a01b03918216600090815260016020908152604080832093909416825291909152205490565b6101b66102cd366004610f48565b6105bd565b6060600380546102e1906110a1565b80601f016020809104026020016040519081016040528092919081815260200182805461030d906110a1565b801561035a5780601f1061032f5761010080835404028352916020019161035a565b820191906000526020600020905b81548152906001019060200180831161033d57829003601f168201915b5050505050905090565b6000336103728185856105f8565b60019150505b92915050565b60003361038c85828561060a565b610397858585610689565b506001949350505050565b60006103ac6106e8565b905090565b6103b9610813565b6103c38282610840565b5050565b6103d13382610876565b50565b6103dc610813565b6103e660006108ac565b565b6103f382338361060a565b6103c38282610876565b6001600160a01b038116600090815260086020526040812054610378565b60006060806000806000606061042f6108fe565b61043761092b565b60408051600080825260208201909252600f60f81b9b939a50919850469750309650945092509050565b6060600480546102e1906110a1565b600033610372818585610689565b834211156104a75760405163313c898160e11b8152600481018590526024015b60405180910390fd5b60007f6e71edae12b1b97f4d1f60370fef10105fa2faae0126114a169c64845d6126c98888886104f48c6001600160a01b0316600090815260086020526040902080546001810190915590565b6040805160208101969096526001600160a01b0394851690860152929091166060840152608083015260a082015260c0810186905260e001604051602081830303815290604052805190602001209050600061054f82610958565b9050600061055f82878787610985565b9050896001600160a01b0316816001600160a01b0316146105a6576040516325c0072360e11b81526001600160a01b0380831660048301528b16602482015260440161049e565b6105b18a8a8a6105f8565b50505050505050505050565b6105c5610813565b6001600160a01b0381166105ef57604051631e4fbdf760e01b81526000600482015260240161049e565b6103d1816108ac565b61060583838360016109b3565b505050565b6001600160a01b03838116600090815260016020908152604080832093861683529290522054600019811015610683578181101561067457604051637dc7a0d960e11b81526001600160a01b0384166004820152602481018290526044810183905260640161049e565b610683848484840360006109b3565b50505050565b6001600160a01b0383166106b357604051634b637e8f60e11b81526000600482015260240161049e565b6001600160a01b0382166106dd5760405163ec442f0560e01b81526000600482015260240161049e565b610605838383610a88565b6000306001600160a01b037f00000000000000000000000000000000000000000000000000000000000000001614801561074157507f000000000000000000000000000000000000000000000000000000000000000046145b1561076b57507f000000000000000000000000000000000000000000000000000000000000000090565b6103ac604080517f8b73c3c69bb8fe3d512ecc4cf759cc79239f7b179b0ffacaa9a75d522b39400f60208201527f0000000000000000000000000000000000000000000000000000000000000000918101919091527f000000000000000000000000000000000000000000000000000000000000000060608201524660808201523060a082015260009060c00160405160208183030381529060405280519060200120905090565b6005546001600160a01b031633146103e65760405163118cdaa760e01b815233600482015260240161049e565b6001600160a01b03821661086a5760405163ec442f0560e01b81526000600482015260240161049e565b6103c360008383610a88565b6001600160a01b0382166108a057604051634b637e8f60e11b81526000600482015260240161049e565b6103c382600083610a88565b600580546001600160a01b038381166001600160a01b0319831681179093556040519116919082907f8be0079c531659141344cd1fd0a4f28419497f9722a3daafe3b4186f6b6457e090600090a35050565b60606103ac7f00000000000000000000000000000000000000000000000000000000000000006006610bb2565b60606103ac7f00000000000000000000000000000000000000000000000000000000000000006007610bb2565b60006103786109656106e8565b8360405161190160f01b8152600281019290925260228201526042902090565b60008060008061099788888888610c5d565b9250925092506109a78282610d2c565b50909695505050505050565b6001600160a01b0384166109dd5760405163e602df0560e01b81526000600482015260240161049e565b6001600160a01b038316610a0757604051634a1406b160e11b81526000600482015260240161049e565b6001600160a01b038085166000908152600160209081526040808320938716835292905220829055801561068357826001600160a01b0316846001600160a01b03167f8c5be1e5ebec7d5bd14f71427d1e84f3dd0314c0f7b2291e5b200ac8c7c3b92584604051610a7a91815260200190565b60405180910390a350505050565b6001600160a01b038316610ab3578060026000828254610aa891906110db565b90915550610b259050565b6001600160a01b03831660009081526020819052604090205481811015610b065760405163391434e360e21b81526001600160a01b0385166004820152602481018290526044810183905260640161049e565b6001600160a01b03841660009081526020819052604090209082900390555b6001600160a01b038216610b4157600280548290039055610b60565b6001600160a01b03821660009081526020819052604090208054820190555b816001600160a01b0316836001600160a01b03167fddf252ad1be2c89b69c2b068fc378daa952ba7f163c4a11628f55a4df523b3ef83604051610ba591815260200190565b60405180910390a3505050565b606060ff8314610bcc57610bc583610de5565b9050610378565b818054610bd8906110a1565b80601f0160208091040260200160405190810160405280929190818152602001828054610c04906110a1565b8015610c515780601f10610c2657610100808354040283529160200191610c51565b820191906000526020600020905b815481529060010190602001808311610c3457829003601f168201915b50505050509050610378565b600080807f7fffffffffffffffffffffffffffffff5d576e7357a4501ddfe92f46681b20a0841115610c985750600091506003905082610d22565b604080516000808252602082018084528a905260ff891692820192909252606081018790526080810186905260019060a0016020604051602081039080840390855afa158015610cec573d6000803e3d6000fd5b5050604051601f1901519150506001600160a01b038116610d1857506000925060019150829050610d22565b9250600091508190505b9450945094915050565b6000826003811115610d4057610d406110fc565b03610d49575050565b6001826003811115610d5d57610d5d6110fc565b03610d7b5760405163f645eedf60e01b815260040160405180910390fd5b6002826003811115610d8f57610d8f6110fc565b03610db05760405163fce698f760e01b81526004810182905260240161049e565b6003826003811115610dc457610dc46110fc565b036103c3576040516335e2f38360e21b81526004810182905260240161049e565b60606000610df283610e24565b604080516020808252818301909252919250600091906020820181803683375050509182525060208101929092525090565b600060ff8216601f81111561037857604051632cd44ac360e21b815260040160405180910390fd5b6000815180845260005b81811015610e7257602081850181015186830182015201610e56565b506000602082860101526020601f19601f83011685010191505092915050565b602081526000610ea56020830184610e4c565b9392505050565b80356001600160a01b0381168114610ec357600080fd5b919050565b60008060408385031215610edb57600080fd5b610ee483610eac565b946020939093013593505050565b600080600060608486031215610f0757600080fd5b610f1084610eac565b9250610f1e60208501610eac565b929592945050506040919091013590565b600060208284031215610f4157600080fd5b5035919050565b600060208284031215610f5a57600080fd5b610ea582610eac565b60ff60f81b8816815260e060208201526000610f8260e0830189610e4c565b8281036040840152610f948189610e4c565b606084018890526001600160a01b038716608085015260a0840186905283810360c08501528451808252602080870193509091019060005b81811015610fea578351835260209384019390920191600101610fcc565b50909b9a5050505050505050505050565b600080600080600080600060e0888a03121561101657600080fd5b61101f88610eac565b965061102d60208901610eac565b95506040880135945060608801359350608088013560ff8116811461105157600080fd5b9699959850939692959460a0840135945060c09093013592915050565b6000806040838503121561108157600080fd5b61108a83610eac565b915061109860208401610eac565b90509250929050565b600181811c908216806110b557607f821691505b6020821081036110d557634e487b7160e01b600052602260045260246000fd5b50919050565b8082018082111561037857634e487b7160e01b600052601160045260246000fd5b634e487b7160e01b600052602160045260246000fdfea2646970667358221220e713660d433f3cef701beb7e22bc3ae40ccc1c2cf4f22c5c671b968346d93a3c64736f6c634300081c0033",
  "linkReferences": {},
  "deployedLinkReferences": {}
}